:020000040800F2
:10000000780900204D020008B3280008D526000812
:10001000B128000843040008692F00080000000010
:100020000000000000000000000000006B2A000833
:100030002D05000800000000952900086D2A000821
:10004000670200089129000867020008670200089B
:10005000DD0500089729000867020008670200080C
:1000600067020008670200086702000867020008CC
:1000700067020008670200086702000867020008BC
:1000800067020008670200086702000869040008A8
:1000900045040008510400085D04000867020008D8
:1000A000252B0008312B00086702000867020008B2
:1000B000670200086702000867020008670200087C
:1000C000670200086702000867020008670200086C
:1000D00067020008A12E00086702000867020008F6
:1000E000670200086702000867020008670200084C
:1000F000670200086702000867020008670200083C
:10010000670200086702000867020008670200082B
:10011000670200086702000867020008670200081B
:100120006702000867020008A504000867020008CB
:1001300067020008670200086702000899040008C7
:1001400075040008810400088D0400086702000897
:1001500067020008670200086702000867020008DB
:1001600067020008670200086702000867020008CB
:10017000670200086702000867020008000000002C
:10018000670200085D0600086702000867020008B1
:10019000670200086702000867020008670200089B
:1001A00000000000000000006702000800F002F8F4
:1001B00000F03CF80AA090E8000C82448344AAF1C5
:1001C0000107DA4501D100F031F8AFF2090EBAE8C3
:1001D0000F0013F0010F18BFFB1A43F0010318477B
:1001E0003434000054340000103A24BF78C878C179
:1001F000FAD8520724BF30C830C144BF04680C602D
:10020000704700000023002400250026103A28BF74
:1002100078C1FBD8520728BF30C148BF0B60704778
:100220001FB503F0E2F91FBD10B510BD00F0CFF807
:100230001146FFF7F5FF02F06DFF00F0EDF803B493
:10024000FFF7F2FF03BC00F0F5F800000948804713
:1002500009480047FEE7FEE7FEE7FEE7FEE7FEE7A8
:10026000FEE7FEE7FEE7FEE704480549054A064BC0
:1002700070470000152B0008AD010008780300202E
:1002800078090020780500207805002053EA020C48
:1002900000F069802DE9F04B4FF00006002B1FBFE6
:1002A000B3FA83F503FA05F424FA05F65E4012BFAB
:1002B0001643B2FA82F502FA05F4C5F120051EBF15
:1002C00022FA05FC44EA0C04203556EA044C4FEAB5
:1002D000144418BF641C4FF000084FF0000990420E
:1002E00071EB030C39D3002919BFB1FA81F701FA78
:1002F00007F6B0FA80F700FA07F6C7F120071EBF2D
:1003000020FA07FC46EA0C062037B6FBF4FCA7EB04
:100310000507103F07F01F0BCBF120060CFA0BFB73
:100320002CFA06F644BFB3460026202FA4BF5E4633
:100330004FF0000B5BEA060C08BF4FF0010B19EB06
:100340000B09ABFB027C48EB0608C01B06FB02CC8A
:100350000BFB03CC71EB0C01C1E70B460246414697
:100360004846BDE8F08B13B54FF000004FF0000198
:10037000AFF30080BDE81C4070474FF0000200B5AD
:10038000134694469646203922BFA0E80C50A0E8B8
:100390000C50B1F12001BFF4F7AF090728BFA0E866
:1003A0000C5048BF0CC05DF804EB890028BF40F832
:1003B000042B08BF704748BF20F8022B11F0804F74
:1003C00018BF00F8012B704770477047704775469B
:1003D00000F02CF8AE4605006946534620F00700B1
:1003E000854618B020B5FFF73FFFBDE820404FF02D
:1003F00000064FF000074FF000084FF0000B21F00F
:100400000701AC46ACE8C009ACE8C009ACE8C009DB
:10041000ACE8C0098D46704710B50446AFF30080C4
:100420002046BDE81040FFF70ABF000000487047B3
:100430001803002001491820ABBEFEE72600020089
:100440007047FEE7014800F086BA0000D4000020A3
:10045000014800F080BA0000D4000020014800F0FC
:100460007ABA0000D4000020014800F074BA0000FD
:10047000D4000020014800F06EBA0000FC0000200B
:10048000014800F068BA0000FC000020014800F0BC
:1004900062BA0000FC000020014800F05CBA0000D5
:1004A000FC000020014800F05DBD0000D4010020E8
:1004B00001681823CAB2103AB2FBF3F2054B6FF38E
:1004C0000901032A9B5CC36500D9091D81650846A3
:1004D00070470000F435000810B5014600208B6914
:1004E0008A6A4FF0C07453B1B3F5005F15D072B192
:1004F000012A0CD0022A0AD0032A09D104E01AB139
:10050000012A06D0022A03D1C96AC90100D50120F7
:1005100010BDC96AA142FAD010BD002AF7D0012A45
:10052000F2D0022AF3D0032AF3D010BD704772B67E
:10053000FEE70000002229B101291DD002291ED0AA
:100540004FF440720B2800D9001D0E490B6823F4AC
:1005500040730B600B6813430B600A6822F0F802CB
:100560000A600A68022303EBC00002430A600868BD
:1005700040F48030086070474FF48072E2E74FF437
:100580000072DFE7103C02401348016889050FD56F
:10059000016821F400710160016841F400610160AB
:1005A000016821F400610160016841F4007101609B
:1005B000016849050FD5016821F480610160016877
:1005C00041F480510160016821F4805101600168AB
:1005D00041F4806101607047003C024000F010BEB1
:1005E0001C490868C2061C4805D5C26942F01002C1
:1005F000C26110220A600A68920605D5C26942F0FB
:100600000802C26120220A600A68520605D5C26942
:1006100042F00402C26140220A600A68120605D54F
:10062000C26942F00202C26180220A600A68D205F1
:1006300006D5C26942F00102C2614FF480720A60BD
:100640000A68920705D5C26942F02002C261022001
:10065000086070470C3C024004000020704790F88E
:100660002020012A07D0022A05D0416A41F48021C6
:10067000416201207047006842690A4342610020DC
:100680007047F0B590F820500468A468012D05D09B
:10069000022D03D0416A41F4802157E014F0406FED
:1006A00001D1E5004FD5C4F301640125A5401D60CB
:1006B0008D684FF4C0739DB1CE6835434E6845EAEE
:1006C000C605066803EB0417F5514FF4C2750768B9
:1006D00005EB04150E697E51097D012905D009E05D
:1006E0000E88CD6845EA4655EBE701684E5946F459
:1006F00080764E511179D579567941EA056195791F
:100700002D0445EA062529434FF4C676056806EB15
:100710000416A9511178D57841EA05619578527887
:100720002D0445EA022211434FF4C475026805EB1B
:1007300004155151006803EB0411425842F00102C4
:1007400042500020F0BD416A41F400114162012095
:10075000F0BD000010B590F82020012A07D0022A31
:1007600005D0416A41F480214162012010BD3B481F
:10077000D0F8002242F00102C0F80022D0F8002296
:1007800022F47C52C0F80022D0F800224B6A42EAE0
:100790000322C0F800220A7D02F01F0301229A40C2
:1007A000D0F81C329343C0F81C32CB69B3B9D0F8EF
:1007B0000C329343C0F80C328C894B6864F31F43AE
:1007C0004C6900EBC404C4F840320C890B6864F334
:1007D0001F434C6900EBC404C4F84432CB69012BBD
:1007E00016D1D0F80C321343C0F80C320C884B6889
:1007F00064F31F434C6900EBC404C4F840320C8915
:10080000CB6864F31F434C6900EBC404C4F8443262
:100810008B69002BD0F804320ED01343C0F8043299
:100820000B69002BD0F8143208D01343C0F81432EF
:10083000096A012904D008E09343EFE79343F5E701
:10084000D0F81C121143C0F81C12D0F8001221F08D
:100850000101C0F80012002010BD0000006400403B
:10086000704770B590F82040012C05D0022C03D0C1
:10087000416A41F4802128E0046809B32469A4078F
:1008800020D04FF4D874056804EB01142D5915F0ED
:100890000405956005682D591AD0ED085560056866
:1008A0002C5904F00204D4604FF4DA74056804EBA8
:1008B00001142E5906F00F06082E0CD308250DE062
:1008C000E468DCE7416A41F400114162012070BD37
:1008D0006D0D1560E3E72D5905F00F0515610568ED
:1008E0002D59C5F30725956105682C59240C5461D1
:1008F0004FF4DC72046802EB0112A4581C70046807
:10090000A458240A5C700468A458240C9C700468E1
:10091000A258120EDA704FF4DE72046802EB011274
:10092000A4581C710468A458240A5C710468A45873
:10093000240C9C710468A258120EDA71006829B167
:10094000016941F020010161002070BDC16841F0E2
:100950002001C160F8E72DE9F05F0546006800243A
:100960004669D0F804908768D0F80CB0D0F810A091
:10097000D0F81880F10748D0F90714D00121816020
:10098000B80703D5284600F08CFA0CE0780702D5AA
:100990004FF4006407E0380702D54FF4805402E0BA
:1009A000284600F07DFAF80516D529684FF48070C6
:1009B0008860B80503D5284600F075FA0CE0780584
:1009C00002D544F4005407E0380502D544F48044CD
:1009D00002E0284600F066FAF80316D529684FF4BD
:1009E00080308860B80303D5284600F05EFA0CE03A
:1009F000780302D544F4004407E0380302D544F4F8
:100A0000803402E0284600F04FFA300707D55FEA4D
:100A1000CB6004D52968102044F40074C8607007C6
:100A20004FF0080707D55FEA0B7004D52868C76048
:100A3000284600F0C9F9B00706D52868C0688007C5
:100A400002D0284600F0C2F9700607D55FEACA60F6
:100A500004D52968102044F480640861B00607D5E5
:100A60005FEA0A7004D528680761284600F0E8F9B3
:100A7000F00606D528680069800702D0284600F0F5
:100A8000E0F9B00308D55FEAC96005D529681020F0
:100A90004860284600F0D6F9F00307D55FEA0970F0
:100AA00004D528684760284600F000FA300446D58F
:100AB0005FEA497040D5F00504D55FEAC87001D0FF
:100AC00044F00104B00504D55FEA887001D544F014
:100AD0000204700504D55FEA487001D544F00404AF
:100AE000300529D518F0700F26D008F07000402886
:100AF00015D006DC102809D020280AD0302816D1BD
:100B00000AE050280ED0602811D10EE044F008040D
:100B10000DE044F010040AE044F0200407E044F043
:100B2000400404E044F0800401E044F48074286848
:100B3000816921F070018161296804204860002CDE
:100B400005D0686A204368622846FFF789FEBDE841
:100B5000F09F70B5040003D094F8200010B104E0B9
:100B6000012070BD204600F081F82068016841F046
:100B70000101016000F0C6FC0546052604E000F016
:100B8000C1FC401B0A2811D820684068C007F6D075
:100B90002068016821F00201016000F0B3FC054605
:100BA0000BE000F0AFFC401B0A2806D9606A40F455
:100BB0000030606284F82060D2E7206840688007D7
:100BC000EFD4207E0128206801683DD021F080010B
:100BD0000160607E01282068016838D021F0400162
:100BE0000160A07E01282068016833D021F0200137
:100BF0000160E07E0128206801682ED041F01001DC
:100C00000160207F01282068016829D021F00801B7
:100C10000160607F01282068016824D021F0040170
:100C20000160D4E902010843D4E9041211430843E6
:100C30006168491E08432168C86100206062012084
:100C400084F82000002070BD41F08001C0E741F031
:100C50004001C5E741F02001CAE721F01001CFE7CC
:100C600041F00801D4E741F00401D9E7F0B587B0BD
:100C7000044614216846FFF780FB4E4B4E48DFF8D0
:100C800030E11968D4F800C04B4A03250226092731
:100C900010300024491CF4453AD11960012907D1CC
:100CA000016841F000710160006800F0007005907B
:100CB000106840F0080010601068CDE9005600F0A0
:100CC0000800CDE9047069463C48CDE9024500F0D2
:100CD000FFFA00221146132000F0A2FC132000F0BE
:100CE00091FC00221146142000F09AFC142000F020
:100CF00089FC00221146152000F092FC152000F01E
:100D000081FC00221146162000F08AFC16204BE0E0
:100D1000DFF8ACE0F44549D1D0F800C04CF0806C6D
:100D2000C0F800C0D0F800C001290CF0806CCDF8EC
:100D300014C0196007D1016841F0007101600068BA
:100D400000F000700590106840F00200106010681C
:100D500002AB00F0020005904FF44050CDE90006D0
:100D600083E8B0006946174800F0B2FA0022114645
:100D70003F2000F055FC3F2000F044FC00221146CB
:100D8000402000F04DFC402000F03CFC00221146C9
:100D9000412000F045FC412000F034FC00221146C7
:100DA000422000F03DFC422000F02CFC07B0F0BDDA
:100DB000006400400000002030380240000C024077
:100DC00000680040000402407047000010B58AB07F
:100DD000044601AB03AA0021FFF743FD1649206832
:100DE00088421ED10398A0F5007001381BD001285D
:100DF0001CD002281DD0032813D11048002810D081
:100E000001880181BDF8041049BA0180BDF80610BF
:100E100049BA4180BDF8081049BA81809DF80A108E
:100E200081710AB010BD05481E38E7E70348143841
:100E3000E4E702480A38E1E7006400406A02002063
:100E4000704770477047000070B5044690F8200066
:100E5000012804D0606A40F40020606218E002209B
:100E600084F820002068016821F00101016000F091
:100E700049FB05460EE000BF00F044FB401B0A287A
:100E800008D9606A40F400306062052084F82000D0
:100E9000012070BD20684068C007EDD1606270BD60
:100EA00070477047704770477047704770472DE92B
:100EB000F0410446876D00F025FB064694F83500A6
:100EC0000025022806D08020606584F83450012077
:100ED000BDE8F0812068016821F0160101602068FA
:100EE000416921F080014161206C08B9A06C20B1FA
:100EF0002068016821F0080101602068016821F084
:100F0000010101600CE000F0FDFA801B052807D903
:100F100020206065032084F8350084F83450D7E73A
:100F200020680068C007EED194F85C103F2088402C
:100F3000B860012084F8350084F834500020C7E7F9
:100F400090F83510022903D08021416501207047B7
:100F5000052180F835100068016821F00101016069
:100F6000002070472DE9F84304464FF00009CDF802
:100F7000009063484FF41651A56D0068B0FBF1F77F
:100F80002E6894F85C10082000FA01F131420FD06D
:100F900021680A6852070BD50A6822F004020A6029
:100FA00094F85C108840A860606D40F001006065B6
:100FB00094F85C104FF0010808FA01F0304208D0B4
:100FC00021684969090604D5A860606D40F00200F7
:100FD000606594F85C1004208840304208D0216895
:100FE0000968890704D5A860606D40F00400606559
:100FF00094F85C1010208840304218D021680968AD
:10100000090714D5A86020680168490304D5006861
:10101000000308D5A16C07E00168C90503D4016885
:1010200021F008010160216C09B12046884794F83D
:101030005C1020208840304231D021680968C90600
:101040002DD5A86094F8350005282068016806D0E1
:10105000490347D5006800031DD4616C1CE021F0F2
:10106000160101602068416921F080014161206C16
:1010700008B9A06C20B12068016821F00801016066
:1010800094F85C103F208840A86084F8358084F88C
:101090003490216D1FE0E16B09B120468847606DF7
:1010A00000282BD0606DC00714D0052084F83500CF
:1010B0002068016821F0010101600098401C009047
:1010C000B84203D820680068C007F6D184F835809C
:1010D00084F83490E16C002910D001B02046BDE8BE
:1010E000F04308470168C905D5D4016821F0100113
:1010F000016084F8358084F83490CCE7BDE8F8834B
:10110000300000202DE9F041044600F0FBF90646CE
:101110005CB1022084F83500002584F83450206842
:10112000016821F0010101600DE00120BDE8F081BE
:1011300000F0E8F9801B052805D920206065032010
:1011400084F83500F2E720680068C007F0D1226813
:10115000116820480140D4E901031843D4E903365B
:101160003343184363691843A3691843E369184379
:10117000236A18430843616A042903D1D4E90B1395
:1011800019430843106020684069666A20F007012F
:1011900030460E43012704280CD1A06A0643E06ABA
:1011A00040B12046FFF798F920B14020606584F8EF
:1011B0003570BAE7206846612046FFF779F994F860
:1011C0005C203F2191408160656584F83570002086
:1011D000ACE700003F8010F070B5044600F092F9D3
:1011E0000546601C02D004480078044400F08AF9E7
:1011F000401BA042FAD370BD2400002070470000BD
:101200002DE9F0412F4E30682F4C10F4F97F4FF04C
:10121000FF384FF000070DD0207801282DD020781E
:1012200002282ED0D4F81450FFF7DAF9284600F03F
:101230004DF827703068C0070BD00120306020784F
:10124000012820D02078022837D06069FFF7D6FF28
:101250002770207800280ED11A48001D016848F236
:10126000FF0291430160016821F080710160016813
:1012700021F000710160BDE8F081E568C4F80C80E0
:10128000D2E72569D0E76068401E6060606850B1B1
:10129000E068FFF7B3FFE068401CE060E068217A97
:1012A000FFF748F9D5E74546C4F80C802770FFF7EB
:1012B0006BF92846FFF7A2FFCBE7FFF765F9206936
:1012C000C4E700000C3C024004000020704700000E
:1012D0002DE9F84FDFF8F8A10022012403254FF093
:1012E0000F090AF1040BAAF1040E00BF0B6804FAFF
:1012F00002F63340B34270D10F7907F00307012F94
:1013000001D0022F16D187684FEA420805FA08FC7F
:1013100027EA0C07D1F80CC00CFA08FC4CEA070CC1
:10132000C0F808C04768B7430E79C6F30016964068
:101330003E4346600E79F643B6070AD0C7684FEAC7
:10134000420C05FA0CF6B7438E6806FA0CF63E43DB
:10135000C6600E7906F00306022E10D1D60800EB07
:101360008608D8F8206057074FEAD76C09FA0CF7BF
:10137000BE430F6907FA0CF73743C8F820700668B8
:101380004FEA420C05FA0CF7BE430F7907F003074A
:1013900007FA0CF7374307604E6816F4403F1CD03D
:1013A0004C4E376847F480473760366822F00307B1
:1013B00006F480460096484E07EB060CDCF80868F9
:1013C00097073F0F09FA07F826EA0806DFF80C81AD
:1013D000404503D14FF0000841E072E0DFF80081A2
:1013E000404502D14FF0010839E0DFF8F880404570
:1013F00002D14FF0020832E0DFF8EC80404502D124
:101400004FF003082BE0DFF8E480404502D14FF0B5
:10141000040824E0DFF8D880404502D14FF00508E9
:101420001DE0DFF8D080404502D14FF0060816E0FD
:10143000DFF8C480404502D14FF007080FE0DFF825
:10144000BC80404502D14FF0080808E0DFF8B080CA
:10145000404502D14FF0090801E04FF00A0808FAB0
:1014600007F848EA0608CCF80888DAF8006057461A
:10147000D1F804C09E435FEACC2C00D51E433E60E9
:10148000DBF800605F46D1F804C09E435FEA8C2C15
:1014900000D51E433E60DEF800607746D1F804C0F8
:1014A0009E435FEA8C3C00D51E433E60084F083FD8
:1014B0003E68D1F804C09E435FEACC3C00D51E4391
:1014C0003E60521C102AFFF411AFBDE8F88F0000F7
:1014D000083C014044380240003001400000024016
:1014E0000004024000080240000C024000100240CC
:1014F0000014024000180240001C0240002002407C
:101500000024024001488068704700002400002049
:1015100002488168027811448160704724000020ED
:101520000B4810B5016841F400710160016841F495
:1015300080610160016841F480710160032000F066
:101540008FF80F2000F006F800F024F8002010BDFE
:10155000003C024070B50D4D04464FF47A71287876
:10156000B1FBF0F00A490968B1FBF0F000F026FD8C
:1015700048B9102C07D200222146501E00F050F826
:1015800000206C6070BD012070BD000024000020B0
:10159000300000201A4808B5016841F4804101601C
:1015A000006800F4804000901548001F016841F079
:1015B000805101600068002200F0805000901146C8
:1015C000012000F02DF8012000F01CF80022114647
:1015D000042000F025F8042000F014F80022114641
:1015E000052000F01DF8052000F00CF8002211463F
:1015F000512000F015F8BDE80840512000F002B875
:1016000044380240002809DB00F01F02012191400C
:101610004009800000F1E020C0F800117047000090
:10162000F0B40E4B1B680C46C3F30223C3F107054D
:10163000042D00D90425191D072901D2002300E03B
:10164000DB1E012606FA05F1491E214099409E4005
:10165000761E16403143F0BC01F087BC0CED00E073
:10166000064900F0070208684FF6FF03184040EAF9
:101670000220034A10430860704700000CED00E0B0
:101680000000FA052DE9F8431748016841F0805140
:1016900001600068154F00F08050012600903E6404
:1016A000FFF730FF05464FF47A78114C05E000BF94
:1016B000FFF728FF401B40450DD86068C003F7D5F1
:1016C0007E64FFF71FFF0546464607E0FFF71AFF57
:1016D000401BB04202D90320BDE8F8836068800354
:1016E000F4D50020F8E700004038024000000E4228
:1016F000007000407047000010B5054C2068C00322
:1017000004D5FFF7F7FF4FF48030206010BD0000D4
:10171000143C01402DE9F84F04460068DFF824A28C
:10172000894F8A4DC1074FF001084FF0000603D1E1
:10173000810701D4400648D5CAF86860FFF7E2FE89
:10174000814605E0FFF7DEFEA0EB090002287DD808
:1017500028680001F6D42078C1077D4805D061686B
:10176000227A890141EA027101602178890711D545
:1017700001686268237B9201C1F3027142EA03624D
:1017800042EA017101603968E26921F01F01521ECD
:10179000114339602178490608D56168227B8901A7
:1017A00041EA0261227A41EA02710160CAF8688066
:1017B000FFF7A8FE814605E0FFF7A4FEA0EB0900B5
:1017C000022843D828680001F6D52068410701D4D3
:1017D00000074ED5CAF87060FFF794FE814605E019
:1017E000FFF790FEA0EB090002282FD82868C0431D
:1017F0008000F5D520784107564814D50168226944
:10180000237D9201C1F3027142EA036242EA01714F
:1018100001603968226A6FF0FF0321F4F85103EB8D
:101820000222114339602178090712D50168226923
:10183000C1F30361920142EA0161227E41EA027131
:1018400001603868616A20F4403000E051E00843EC
:101850003860CAF87080FFF755FE074605E000BF04
:10186000FFF750FEC01B022843D82868C043800001
:10187000F6D42078800653D534484030016841F0D2
:10188000805101600068344D00F08050009028685D
:1018900040F480702860FFF735FE074605E000BF82
:1018A000FFF730FEC01B022823D82868C005F7D5F3
:1018B000274D143D286810F4407020D0218D01F48C
:1018C000407181421BD0286820F440712348C0F841
:1018D0000080066029602868C00710D0FFF712FE5C
:1018E000064641F2883707E0FFF70CFE801BB8423E
:1018F00002D90320BDE8F88F28688007F4D5A16AD3
:101900001248C1F301220830032A13D0016821F4E0
:10191000F81101602868218DC1F30B01084328608C
:101920002078C00604D50E4994F82C00C1F8E001D7
:101930000020DFE702680B4B22F4F81219400A433B
:101940000260E7E7000047428C380240003802405E
:10195000843802408838024000700040400E474200
:1019600000104742FFFCFF0F2DE9F0470E4605002F
:1019700065D0DFF81481D8F80000F7B200F00F004E
:10198000B04207D288F80070D8F8000000F00F00CD
:10199000B04254D128683D4C810712D5400703D589
:1019A000206840F4E05020602878000703D52068C4
:1019B00040F4604020602068A96820F0F0000843EF
:1019C00020602878C0072DD0304968680839012880
:1019D00012D0022813D0032811D0096889070029E2
:1019E0002DDA216821F0030101432160FFF78AFD10
:1019F000814641F2883A0EE009688903EFE70968F9
:101A00008901ECE7FFF77EFDA0EB0901514502D902
:101A10000320BDE8F0872068696800F00C00B0EB97
:101A2000810FEFD1D8F80010404601F00F01B1420C
:101A300007D90770006800F00F00B04201D0012004
:101A4000E7E72878400705D52068E96820F4E050EA
:101A5000084320602878000706D52068296920F40B
:101A6000604040EAC100206000F038F82168084A70
:101A7000C1F30311515CC84006490860064800687C
:101A8000FFF768FD0020C4E7003C02400838024030
:101A9000FC350008300000202800002004480549DB
:101AA00000680968044AC1F38221515CC84070474C
:101AB00030000020083802400C3600080448054970
:101AC00000680968044AC1F34231515CC84070475C
:101AD00030000020083802400C360008154810B5C8
:101AE000006810F00C02144813D01449042A0FD0D7
:101AF000082A0ED10F4C241F2268236802F03F02EF
:101B00005B0207D52068C0F38810A0FB010106E046
:101B1000084610BD2168C1F38811A1FB0001002314
:101B2000FEF7B4FB2168C1F30141491C4900B0FB39
:101B3000F1F010BD083802400024F400001BB7008B
:101B40002DE9F84F04006ED02078DFF84C93C007E1
:101B5000A9F104054AD009F104000168C1F381012B
:101B6000012908D00068C0F3810002280AD1D9F801
:101B70000000400206D52868800337D56068002839
:101B8000E1D033E06068B0F5803F10D0B0F5A02F11
:101B9000286810D020F480302860286820F4802045
:101BA00028606068A8B1FFF7ADFC06460DE0286824
:101BB00040F48030F4E740F480202860F7E700BF6D
:101BC000FFF7A0FC801B642873D828688003F7D532
:101BD0000CE0FFF797FC064605E000BFFFF792FC1C
:101BE000801B6428F0D828688003F7D42078DFF8B9
:101BF000AC8280074FF0000A3ED5A748001D01685F
:101C000011F00C0F08D00068C0F3810002280BD13E
:101C1000D9F80000400207D42868800716D5E0688C
:101C2000012800D112E033E1E068B8B10120C8F822
:101C30000000FFF767FC064605E000BFFFF762FC07
:101C4000801B0228C0D828688007F7D5286821693A
:101C500020F0F80040EAC10028600DE0C8F800A0BC
:101C6000FFF750FC064604E0FFF74CFC801B0228FF
:101C70001FD828688007F7D42078000722D5864F20
:101C800087486169703771B101210160FFF73AFC43
:101C9000064604E0FFF736FC801B022809D83868A6
:101CA0008007F7D50EE0C0F800A0FFF72BFC064632
:101CB00005E082E0FFF726FC801B02287DD838680B
:101CC0008007F7D42078400768D5DFF8CCB100272B
:101CD0000BF13C0BDBF80000C0000BD4DBF800106C
:101CE00041F08051CBF80010DBF80000012700F034
:101CF000805000906B4E3068C00510D4306840F4BE
:101D000080703060FFF7FEFB009005E0FFF7FAFB04
:101D10000099401A022850D83068C005F6D55E4EAA
:101D2000A0686C3601280FD00528306810D020F04C
:101D300001003060306820F004003060A068B8B165
:101D4000FFF7E0FB00900FE0306840F00100F4E79F
:101D500040F004003060F7E7FFF7D4FB0099411A28
:101D600041F28830814266D830688007F4D50EE0B1
:101D7000FFF7C8FB009007E0FFF7C4FB0099411A8A
:101D800041F28830814256D830688007F4D42FB1B0
:101D9000DBF8001021F08051CBF80010A069C8B327
:101DA0003D49091D0968C1F3810102294AD0022871
:101DB000504607D0C8F8600000E03CE0FFF7A2FB07
:101DC00004463BE04746C8F86000FFF79BFB064629
:101DD00005E000BFFFF796FB801B02282BD8286880
:101DE0008001F7D4D4E907010843A16A2E4A4908C3
:101DF00002EB0141626A41EA8211084394F82C1017
:101E000040EA0161C9F8001001203866FFF77AFB4B
:101E1000044606E03EE000BFFFF774FB001B02280B
:101E200009D828688001F7D534E000BFFFF76AFBC6
:101E3000001B022802D90320BDE8F88F2868800122
:101E4000F4D427E00128F7D0D9F80000E26900F4C3
:101E5000800191421CD1226A00F03F01914217D1CA
:101E600047F6C071626A0140B1EB821F10D1A26ACD
:101E70004FF0FF3300F4403103EB5202B1EB024F5D
:101E800006D194F82C1000F07060B0EB016F01D017
:101E90000120D1E70020CFE704380240000047428C
:101EA000800E4742007000400000FFFF10B50400A4
:101EB00002D0607F10B106E0012010BD0020207725
:101EC000204600F041F8022060772068C168C943CD
:101ED000C90632D5CA214162216853204862204692
:101EE00000F08AFD20BB20688168164A114081609D
:101EF0002168886862681043D4E904231A431043B8
:101F000088602168E068086120680169228941EAE7
:101F100002410161204600F093FD48B921680A6C36
:101F200022F480220A6421680A6CA3691A430A64B5
:101F30002268FF21516208B110BD002001216177A4
:101F400010BD0000BFFF8FFF10B58CB004463021DC
:101F50006846FEF712FA0949206888420CD1202011
:101F6000009000010A906846FFF7D4FB08B1FEF725
:101F7000DEFA0349012008600CB010BD00280040C3
:101F80003C0E474270B504460B482168C860FFF715
:101F9000B9FA05464FF47A7607E000BFFFF7B2FAC8
:101FA000401BB04201D9032070BD2068C068800684
:101FB000F4D5002070BD00005F7F010010B5401E09
:101FC000B0F1807F01D3012010BD4FF0E0246061AB
:101FD0000F21601700F0C9FF0020A06107202061D9
:101FE000002010BD7047704770B590F83C20012A62
:101FF00032D0012480F83C40022280F83D20036862
:102000005A689D6822F070060A6832435A60134B82
:1020100002689A4214D0B2F1804F11D0104B9A420C
:102020000ED0104B9A420BD00F4B9A4208D00F4B58
:102030009A4205D00E4B9A4202D00E4B9A4204D1DE
:10204000496825F080031943916080F83D400021E4
:1020500080F83C10084670BD022070BD00000140B1
:102060000004004000080040000C00400004014053
:10207000004001400018004010B5040003D094F85F
:102080003D0010B107E0012010BD002084F83C00A5
:10209000204600F01FF8022084F83D00211D206832
:1020A00000F04CFD012084F8460084F83E0084F8DE
:1020B0003F0084F8400084F8410084F8420084F82E
:1020C000430084F8440084F8450084F83D00002073
:1020D00010BD000008B500680F4988421AD10F48AA
:1020E000016841F0010101600068002200F0010078
:1020F000009011461820FFF793FA1820FFF782FA94
:10210000002211461920FFF78BFABDE8084019207C
:10211000FFF778BA08BD00000000014044380240D3
:1021200070B5044690F83C000025012817D0012620
:1021300084F83C60022084F83D002068826822F028
:10214000770222F47F4282600868502838D00DDC84
:1021500020284FD005DC90B3102811D14AE002208E
:1021600070BD302846D040280AD13BE060282FD0EF
:1021700070280DD0B0F5805F03D0B0F5005F12D0AD
:10218000012584F83D60002084F83C00284670BD9D
:10219000CB68D1E90121206800F038FD2068816812
:1021A00041F0770109E0CB68D1E90121206800F016
:1021B0002DFD2068816841F480418160E1E719E0EC
:1021C000CA684968206800F033FD5021206806E0A5
:1021D000CA684968206800F03CFD6021206800F072
:1021E0001FFDCEE7CA684968206800F021FD402144
:1021F0002068F4E7226801461046F0E770472DE9B1
:10220000F04104460068C66805694FF00007A90759
:1022100013D5B10711D5F91E01610120207720687F
:1022200080698007204602D0FFF7E8FF04E000F055
:102230007EF8204600F07CF82777680716D57007EF
:1022400014D521686FF0040008610220207720680F
:10225000806910F4407F204602D0FFF7CFFF04E0F2
:1022600000F065F8204600F063F82777280715D5B9
:10227000300713D521686FF008000861042020772B
:102280002068C0698007204602D0FFF7B7FF04E04E
:1022900000F04DF8204600F04BF82777E80616D5F9
:1022A000F00614D521686FF010000861082020772F
:1022B0002068C06910F4407F204602D0FFF79EFFDF
:1022C00004E000F034F8204600F032F82777E80701
:1022D00008D0F00706D021686FF0010008612046A1
:1022E00000F027F8280608D5300606D521686FF0DB
:1022F000800008612046FFF775FE680608D5700665
:1023000006D521686FF040000861204600F012F801
:10231000A8060AD5B00608D521686FF0200008612C
:102320002046BDE8F041FFF75EBEBDE8F081704792
:10233000704770477047704770470000F8B50168F4
:1023400004460868CA684B6910F00F0F4FF000058B
:1023500059D003F0010602F49077374365D0C107E6
:1023600005D0D10503D5616C41F0010161644107DD
:1023700005D5D90703D0616C41F002016164810782
:1023800005D5D90703D0616C41F0040161640107F0
:1023900007D502F02001314303D0616C41F0080100
:1023A0006164616C00293AD0800604D5900602D59C
:1023B000204600F08EFC20684069616CC0F38010FC
:1023C000090700D460B3204600F05CFC2068406937
:1023D000400621D52068143050E8001F21F040014C
:1023E00040E80012002AF5D1E06BA8B172490165FE
:1023F000E06BFEF7A5FD002811D0E06B016D01B088
:10240000BDE8F040084783060FD593060DD520465A
:10241000BDE8F84000F05DBC2046FFF78DFFF8BD39
:102420002046FFF789FF6564F8BD266B2023012E47
:102430007ED1C6067CD5D6067AD508684868009055
:1024400048694FF0020640064DD5E26B10684068BF
:102450004FF480770004000C3AD0A18D814237D927
:10246000E085D069B8422DD020680C3050E8001FBC
:1024700021F4807140E80012002AF5D12068143060
:1024800050E8001F21F0010140E80012002AF5D1B8
:102490002068143050E8001F21F0400140E800128D
:1024A000002AF5D184F84230256320680C3050E8CA
:1024B000001F21F0100140E80012002AF5D1E06B66
:1024C000FEF7F5FC6663A08DE18D401A81B206E04F
:1024D000A18D8142A8D1D069B842A5D166632046BA
:1024E000FFF729FFF8BDA08DE18D401A81B2E08D84
:1024F0000028F7D00029F5D020680C3050E8002FD4
:1025000022F4907240E80027002FF5D120681430A3
:1025100050E8002F22F0010240E80027002FF5D1FB
:1025200084F84230256320680C3050E8002F00E02A
:1025300006E022F0100240E80023002BF3D1CDE7A3
:1025400005062BD5150629D594F841002128C9D1B7
:10255000A068B0F5805F01D12069B0B1206A411C4C
:102560002162216800784860E08C401E0004000C65
:10257000E084B7D12068C16821F08001C160206883
:10258000C16841F04001C160F8BD206A0088C0F315
:1025900008004860206A801C2062E5E74006F3D509
:1025A0005006F1D5CA68204622F04002CA6084F87D
:1025B000413000F08EF8F8BD772C000870B50400AB
:1025C00004D094F84100002510B106E0012070BD50
:1025D00084F84050204600F023F8242084F841007D
:1025E0002068C16821F40051C160204600F0D2FB90
:1025F0002068016921F4904101612068416921F05E
:102600002A0141612068C16841F40051C1606564DC
:10261000202084F8410084F842006563002070BDEA
:1026200070B586B0064614216846FDF7A6FE23491C
:102630003068884240D122480025016841F01001ED
:102640000160006800F0100005901D481438016812
:1026500041F0020101600068694600F00200059047
:10266000C02000900220CDE901050320039007203F
:1026700004901448FEF72CFE144C134820604FF0D1
:102680000060C4E901054014C4E90350801065618D
:10269000C4E90650256220466562FEF733FD08B1A5
:1026A000FDF745FFF463002211462520A663FEF7DF
:1026B000B7FF2520FEF7A6FF06B070BD0010014051
:1026C000443802400004024040640240D40100202B
:1026D00070477047FEE700000E4810B50C490160D6
:1026E0000321416000214FF440228160C0E90312C0
:1026F0004161017641768176C17601774177FEF7B7
:1027000028FA002803D0BDE81040FDF710BF10BD27
:1027100000640040D40000200E4810B50C49016050
:102720000521416000214FF4C0228160C0E90312FD
:102730004161017641768176C17601774177FEF776
:1027400008FA002803D0BDE81040FDF7F0BE10BD28
:1027500000680040FC000020094808B5016841F409
:10276000800101600068002200F4800000901146A2
:102770003A20FEF755FFBDE808403A20FEF742BF79
:1027800030380240114808B5016841F0010101608C
:10279000016801F001010091016841F0020101604E
:1027A000016801F002010091016841F00801016037
:1027B000016801F008010091016841F080010160A9
:1027C000006800F08000009008BD00003038024032
:1027D0000B4810B50949016000217F22C0E90112B0
:1027E000FF22C0E9032141618161FFF75FFB0028FF
:1027F00003D0BDE81040FDF79ABE10BD0028004090
:102800002401002010B586B00024184800940194DB
:1028100002940394049414490594016042F2F70170
:10282000C0E901146321C0E903148021C0E9054116
:10283000FFF722FC08B1FDF77AFE4FF480500090BC
:1028400069460A48FFF76CFC08B1FDF770FE049476
:1028500004A906480594FFF7C7FB002801D0FDF73F
:1028600066FE06B010BD00000000014044010020DB
:102870000D4810B50B4901600C49416000214FF42F
:102880000052C0E90212D21002610C22C0E90521F7
:10289000C161FFF793FE002803D0BDE81040FDF7AB
:1028A00046BE10BD001001408C010020A086010032
:1028B000FEE7FEE710B504462DED028BB0EE408A30
:1028C000D0ED058A80ED058A18EE100A00F01CFE96
:1028D00000EE100A9FED2B1B21F0004110EE100AB4
:1028E00053EC112B00F080FD49D2D4ED060A94ED93
:1028F000070A48EE000AC4ED060A94ED040AF4EE55
:10290000C00AF1EE10FA01DD84ED060AD4ED060AE4
:10291000B1EE400AF4EEC00AF1EE10FA02D200BFA6
:1029200084ED060A94ED000A94ED061A78EE681A12
:1029300060EE080A94ED010A94ED072A20EE010AE0
:1029400094ED021A61EE211A30EE800AD4ED030AEA
:1029500081EE821A30EE010AF4EEC00AF1EE10FAAE
:1029600001D2B0EE600AF1EE600AF4EEC00AF1EEB8
:1029700010FA01DDB0EE600ABDEC028B10BD9FEDD8
:10298000030ACDE7000000000000494000000000FD
:10299000FEF7B2BE7047704730B5144B1C686569CE
:1029A00045F0400565611B68DC6844F01004DC609C
:1029B0000F4B1C68256825F0010525601C682568FB
:1029C000ED07F7D11D680B4CAC601C68E06018681F
:1029D0000161186842601868016841F48021016053
:1029E0001868016841F00101016030BD8C010020D0
:1029F000D4010020041001402DE9F0410446006894
:102A00000025C168490618D4C16841F08001C16041
:102A1000FEF778FD06464FF47A78042707E000BFFA
:102A2000FEF770FD801B404501D9677701252068BE
:102A3000C068400601D4002DF2D02846BDE8F081E0
:102A400070B5044600680025C16821F08001C160AE
:102A500020688068800606D42046FFF793FA10B1FC
:102A6000042060770125284670BD7047FEF750BDF1
:102A700030B593B030216846FDF77FFC14210CA8D7
:102A8000FDF77BFC21480025016841F08051016081
:102A9000006800F0805011901D48016841F44041E9
:102AA00001600068022400F4404011900920009069
:102AB0004FF4803001900120CDE905048005079096
:102AC00006200890B420CDE9090404200B90684644
:102AD000FFF736F808B172B6FEE7FEF7D3FD08B18E
:102AE00072B6FEE70CA90F2081E831004FF4A05028
:102AF0000F904FF48050109005210CA8FEF734FF82
:102B0000002801D072B6FEE713B030BD4038024055
:102B1000007000400248016841F470010160704794
:102B200088ED00E00148FFF76ABB00004401002087
:102B30000148FFF764BB000044010020F0B50268C3
:102B4000274B284D284E294F294C4FF0804C984256
:102B500009D0604507D0A84205D0B04203D0B842A2
:102B600001D0A04204D122F0700E4A6842EA0E025F
:102B700098421BD0604519D0A84217D0B04215D05A
:102B8000B84213D0A04211D01A4DA8420ED01A4D0F
:102B9000A8420BD0194DA84208D0194DA84205D023
:102BA000184DA84202D0184DA84203D122F4407516
:102BB000CA682A434D6922F080022A438D68C562A3
:102BC0000D688562984201D0A04201D10969016374
:102BD000016841F004010160012141610260F0BD22
:102BE000000001400004004000080040000C0040CC
:102BF0000004014000400140004401400048014001
:102C000000180040001C00400020004010B58468FF
:102C100042EA032224F47F440A432243826010BD27
:102C2000826822F070020A4342F007018160704717
:102C300010B5036A046A24F001040462846924F074
:102C4000F00444EA021423F00A020A438461026297
:102C500010BD10B5036A046A24F01004046284698C
:102C600023F0A00324F4704444EA023243EA011141
:102C70008261016210BD10B5806B0021C185FFF734
:102C80005BFB10BD01680C3151E8002F22F49072FB
:102C900041E80023002BF5D10168143151E8002FE1
:102CA00022F0010241E80023002BF5D1016B01293C
:102CB00009D101680C3151E8002F22F0100241E8DF
:102CC0000023002BF5D1202180F842100021016360
:102CD000704708B590F84210222901D0022008BDA3
:102CE00082684FF480539A4201D1016921B1816A0F
:102CF0009A421BD04AB10AE00268816A5268C2F364
:102D000008020A80816A891C08E0026972B10268BF
:102D1000526802F07F020A70816A491C8162C18D8B
:102D2000491E0904090CC18503D01BE002685268E2
:102D3000F1E70168CA6822F02002CA600168CA6827
:102D400022F48072CA6001684A6922F001024A6175
:102D5000202180F8421000214163026B012A03D038
:102D6000FFF7B6FC002008BD016301680C3151E893
:102D7000002F22F0100241E80023002BF5D101685A
:102D80000A68D20602D50A6849680091818DFFF76A
:102D9000D2FAE7E770B5044600680169E26821F4F9
:102DA0004051114301612169A068E26908436169EA
:102DB000114308432168CA6849F20C639A430243ED
:102DC000CA6020684169A26921F4407111434161E0
:102DD00031492068884202D03049884202D1FEF74A
:102DE0006DFE01E0FEF75AFEE26900231921642519
:102DF0003226B2F5004F626828D0A0FB0101930F84
:102E00009200FDF743FA0146B0FBF5F06FF01802AF
:102E1000504301EB800006EB0010B0FBF5F000F032
:102E2000F002B1FBF5F002EB0012B1FBF5F06FF030
:102E30001803584301EB800006EB0010B0FBF5F0DF
:102E400000F00F0021681044886070BDA0FB0101F4
:102E500092185B41FDF71AFA0146B0FBF5F002014A
:102E6000B1FBF5F06FF01803584301EB800006EB5F
:102E7000C000B0FBF5F000F0F80002EB4002B1FB3F
:102E8000F5F0584301EB800006EBC000B0FBF5F015
:102E900000F00700D6E700000010014000140140D8
:102EA00010B50348FFF74AFABDE8104000F002B839
:102EB0008C010020264818B400680168890604D5F2
:102EC00001684068009018BC704722490968C9062B
:102ED000F9D501684068204A0090106801684FF0F9
:102EE00032030C031D49046824F00104046016D465
:102EF00010684468C4F13204A4B20C8043601068C6
:102F0000016841F4002101601068016841F001018D
:102F10000160192CD7D1124901F12E0015E0146877
:102F20006068C0F1320080B2088063600D498B6A2E
:102F300023F400238B6211680A6842F001020A60E0
:102F40001928C0D1064901F1600018BC00F052B93F
:102F50008C01002000100140D40100203C00002022
:102F60007402002000600240FEE70907090E0028F5
:102F700004DB00F1E02080F80014704700F00F003F
:102F800000F1E02080F8141D704700002DE9F041A9
:102F900024498868322806D2401C002388601A46DB
:102FA0001946184639E01F4F00241F4E1437A7F169
:102FB000080500BF06EB840090ED000AB5EEC00ADC
:102FC000F1EE10FA07D107EB44109FED180A80EDDF
:102FD000060A002014E0164904EB840001EB4000CF
:102FE000B0F9020000EE900A07EB4410F8EEE00A98
:102FF00030EE600AFFF75EFCBDEEC00A10EE100A6C
:1030000025F81400641C042CD4DBB5F90630B5F99E
:103010000420B5F90210B5F90000BDE8F04100F058
:1030200009B8000040000020080300200000000054
:103030004C02002030B40E4C4FF400752560002582
:10304000A560E560082525610A4C050A25706070B9
:10305000080AA070E170100A20716271180AA0714C
:10306000E371224630BC002301490348FDF709BB48
:103070003402002034000020D400002000B58BB0C2
:1030800000200121CDE906010891009001900290F5
:1030900003900590049069460C48FDF75BFB0B48D4
:1030A000FDF7D2FE02210948FDF7D9FA0E2009905A
:1030B000059069460648FDF74DFB0548FDF7C4FE3F
:1030C00002210348FDF7CBFA0BB000BDD40000206D
:1030D000FC00002070EE201A9FED0D1A61EE811A9F
:1030E000C0ED001A70EEC01A61EE811AC0ED011A2F
:1030F00070EE601AB1EE400A30EE600A61EE811A9D
:1031000020EE010AC0ED021A80ED030A70470000AC
:1031100074D01845FEF704FAFFF7AAFCFFF732FB5C
:10312000FFF71AFBFFF7D8FAFFF7F6FAFFF750FBA5
:10313000FFF768FBFFF79CFBFFF7A0FF00F052F8DA
:103140004FF4FA70FEF748F800F002F81420F9E79F
:103150001C4810B5B0F90610B0F9080000EE101ABE
:1031600000EE900A1848B8EEC00AF8EEE00AB0EE99
:10317000C01A11EE101A9FED151A814201DAB0EE55
:10318000410AF0EEE01A11EE901A814201DAF0EEF7
:10319000410A9FED0F1A1048C0EE011A9FED0D0A6B
:1031A00021EE800AC0EE811ADFED0C0A61EEA00A62
:1031B00080EC020A0A48FFF78DFFBDE81040FFF7D8
:1031C000E5BE000074020020000020410000000065
:1031D00000C027449A99193F400000209A9919BFCE
:1031E0000803002002493222A1F13200FFF7D4BBCC
:1031F000D40200202DE9FF4F00287CD000297AD08E
:1032000002780F2A77D102780A804278837842EADE
:103210000322C2F30A08A1F80280CDF80C8082785C
:10322000C378D20803F03F0342EA4318A1F80480B0
:10323000C278C3460379920942EA8302437903F0D4
:10324000010342EA8328A1F80680CDF8088042797C
:103250008379520803F00F0342EAC318A1F80880EB
:10326000CDF804808279C379120903F07F0342EA22
:103270000318A1F80A80C279C646037AD20942EA45
:103280004302437A03F0030342EA4328A1F80C8087
:10329000CDF80080427A837A920803F01F0342EA55
:1032A0008318A1F80E80827AC246C37A520942EA94
:1032B000C308A1F81080027BC146437B03F00703DB
:1032C00042EA032CA1F812C0427B837BD20803F0B0
:1032D0003F0342EA43178F82827BC37B920942EA13
:1032E0008302037C03F0010342EA8326CE82027C40
:1032F000437C520800E068E003F00F0342EAC31584
:103300000D83427C837C120903F07F0342EA03149D
:103310004C83827CC37CD20942EA4302037D03F0E2
:10332000030342EA43238B83027D90F815809208C1
:1033300008F01F0842EA8812CA8390F81580807D41
:103340004FEA581848EAC000DDF80C80ACF5806CF4
:10335000A8F58068A1F80280ABF58068A1F8048028
:10336000DDF80880A7F58067A8F58068A1F80680D9
:10337000DDF80480A6F58066A8F58068A1F80880CD
:10338000AEF58068A1F80A80DDF80080A5F58065BB
:10339000A8F58068A1F80C80AAF58068A1F80E80D5
:1033A000A9F58068A1F81080A1F812C08F82CE82A2
:1033B0000D83A4F580644C83A3F580638B83A2F511
:1033C0008062CA83A0F580600884BDE8FF8F491041
:1033D00058BFC1F140415B1058BFC3F140438B421D
:1033E000EFF300807047000051EA030C17D41CF57E
:1033F000801F58BFBCF5801F00F10680994218BF9E
:10340000704708BF9042704707D711F5801F58BF1B
:1034100013F5801F19D499427047894270471CF5F3
:10342000801F08D5BCF5801FF7D58B4218BF7047A9
:1034300008BF824270474FF4001C1CEB410F38BF9D
:103440001CEB430F01D28B42704770B500F008F8B7
:10345000922449004FF000514FF08053FFF7B7BF5F
:103460000EF1020E2EF0030E5EF8046B364205D408
:10347000012A43EB030515F5001F12D8012841EB83
:10348000010C1CF5001F0CD80ED14FEAD17C15F5AC
:10349000001F0CEB4C0C0CF1020C08BF4CEBD37C66
:1034A00004E04FF0080C01E04FEAD37C0CEB4C0534
:1034B00026FA05F606F00706B6F1040C06D20EEB66
:1034C000860CBDE870404CF0010C6047DFE80CF062
:1034D000090B02024FF000414FF00000A1F500215E
:1034E00070BD19461046012851EB010418BFD4F5F0
:1034F000001484BF002001F0004170BD0808A0F551
:1035000000114FEA3101704743004FEAD30C4FEAF4
:103510003C0C43401FBF40070CF1605113F0FE4FBD
:1035200070471CF0006F03D100200CF00041704781
:103530000CF0004343EA507010B540EACC0000F0B4
:103540000EF800BF000000924FEA0001FFF7D6BF5F
:103550004FF000414FF00000A1F5002170470EF13F
:10356000020E2EF0030E5EF8044B244204D44FEA00
:103570004102B2F17F4F11D84FEA4003B3F17F4FC0
:103580000CD80ED14FEAD07CB2F17F4F0CEB4C0C33
:103590000CF1020C08BF4CEBD17C04E04FF0080C9E
:1035A00001E04FEAD17C0CEB4C0324FA03F404F065
:1035B0000704B4F1040C06D20EEB840CBDE81040F5
:1035C0004CF0010C6047DFE80CF0070802024FF0F6
:1035D0000040A0F5800010BD0846420018BFD2F19F
:1035E000807288BF00F0004010BD4FF04070E1EEE7
:1035F000100A7047000610160006101600000000A2
:103600000000000001020304060708090000000092
:10361000010203043436000800000020D40000003A
:10362000E801000808370008D4000020A4080000C2
:10363000040200080000000000000000000000007C
:103640000000000000000000010000000000000079
:103650000000000000000000010000001000000059
:10366000000000000024F400000000000000000042
:10367000000000000000000000000000000000004A
:103680000000000000000000000000410000003FBA
:103690000000000000007A4500409C45000000004A
:1036A000000000000AD7A33C000000410000003FDA
:1036B0000000000000007A4500409C45000000002A
:1036C000000000000AD7A33C000000410000003FBA
:1036D0000000000000007A4500409C45000000000A
:1036E000000000000AD7A33C000000410000003F9A
:1036F0000000000000007A4500409C4500000000EA
:08370000000000000AD7A33C01
:04000005080001AD41
:00000001FF
